{
  "contractName": "Donation",
  "abi": [
    {
      "inputs": [],
      "stateMutability": "nonpayable",
      "type": "constructor"
    },
    {
      "anonymous": false,
      "inputs": [
        {
          "indexed": true,
          "internalType": "address",
          "name": "donor",
          "type": "address"
        },
        {
          "indexed": false,
          "internalType": "uint256",
          "name": "amount",
          "type": "uint256"
        }
      ],
      "name": "DonationReceived",
      "type": "event"
    },
    {
      "inputs": [],
      "name": "donationAmount",
      "outputs": [
        {
          "internalType": "uint256",
          "name": "",
          "type": "uint256"
        }
      ],
      "stateMutability": "view",
      "type": "function",
      "constant": true
    },
    {
      "inputs": [],
      "name": "owner",
      "outputs": [
        {
          "internalType": "address",
          "name": "",
          "type": "address"
        }
      ],
      "stateMutability": "view",
      "type": "function",
      "constant": true
    },
    {
      "inputs": [],
      "name": "sepoliaWallet",
      "outputs": [
        {
          "internalType": "address",
          "name": "",
          "type": "address"
        }
      ],
      "stateMutability": "view",
      "type": "function",
      "constant": true
    },
    {
      "inputs": [],
      "name": "sepoliaWallet1",
      "outputs": [
        {
          "internalType": "address",
          "name": "",
          "type": "address"
        }
      ],
      "stateMutability": "view",
      "type": "function",
      "constant": true
    },
    {
      "inputs": [],
      "name": "sepoliaWallet2",
      "outputs": [
        {
          "internalType": "address",
          "name": "",
          "type": "address"
        }
      ],
      "stateMutability": "view",
      "type": "function",
      "constant": true
    },
    {
      "inputs": [],
      "name": "sepoliaWallet3",
      "outputs": [
        {
          "internalType": "address",
          "name": "",
          "type": "address"
        }
      ],
      "stateMutability": "view",
      "type": "function",
      "constant": true
    },
    {
      "inputs": [],
      "name": "sepoliaWallet4",
      "outputs": [
        {
          "internalType": "address",
          "name": "",
          "type": "address"
        }
      ],
      "stateMutability": "view",
      "type": "function",
      "constant": true
    },
    {
      "inputs": [],
      "name": "sepoliaWallet5",
      "outputs": [
        {
          "internalType": "address",
          "name": "",
          "type": "address"
        }
      ],
      "stateMutability": "view",
      "type": "function",
      "constant": true
    },
    {
      "inputs": [],
      "name": "donate",
      "outputs": [],
      "stateMutability": "payable",
      "type": "function",
      "payable": true
    },
    {
      "inputs": [],
      "name": "totalDonations",
      "outputs": [
        {
          "internalType": "uint256",
          "name": "",
          "type": "uint256"
        }
      ],
      "stateMutability": "view",
      "type": "function",
      "constant": true
    },
    {
      "inputs": [],
      "name": "withdraw",
      "outputs": [],
      "stateMutability": "nonpayable",
      "type": "function"
    },
    {
      "inputs": [],
      "name": "getTotalDonationsAmount",
      "outputs": [
        {
          "internalType": "uint256",
          "name": "",
          "type": "uint256"
        }
      ],
      "stateMutability": "view",
      "type": "function",
      "constant": true
    }
  ],
  "bytecode": "0x608060405273e595ffb62521c54cd7d80db98352a5aafba79aee600160006101000a81548173ffffffffffffffffffffffffffffffffffffffff021916908373ffffffffffffffffffffffffffffffffffffffff16021790555073cf5739410c28376bb698b911b2e654c00516cbbf600260006101000a81548173ffffffffffffffffffffffffffffffffffffffff021916908373ffffffffffffffffffffffffffffffffffffffff1602179055507339f3713e6fde02c4b8ad49772c2eb6e3cd3001a9600360006101000a81548173ffffffffffffffffffffffffffffffffffffffff021916908373ffffffffffffffffffffffffffffffffffffffff16021790555073416cacaa5f9d98dd0321ba5bd21a89d648ae0c2b600460006101000a81548173ffffffffffffffffffffffffffffffffffffffff021916908373ffffffffffffffffffffffffffffffffffffffff160217905550731adaaaab2bc1ec22e6b6d87d19ea998903a9e9a3600560006101000a81548173ffffffffffffffffffffffffffffffffffffffff021916908373ffffffffffffffffffffffffffffffffffffffff16021790555073850c448d7db1ba62b62b711b9fb76d9116e07279600660006101000a81548173ffffffffffffffffffffffffffffffffffffffff021916908373ffffffffffffffffffffffffffffffffffffffff16021790555064e8d4a51000600755600060085534801561021c57600080fd5b50336000806101000a81548173ffffffffffffffffffffffffffffffffffffffff021916908373ffffffffffffffffffffffffffffffffffffffff16021790555061076d8061026c6000396000f3fe6080604052600436106100a75760003560e01c80638da5cb5b116100645780638da5cb5b146101dc578063b5f8308b1461021d578063c8be5c821461025e578063de2ed8931461029f578063ed88c68e146102ca578063f6021d33146102d4576100a7565b8063141b8809146100ac5780633ccfd60b146100d75780634bed6c23146100ee5780634f0e4ed71461011957806360697bff1461015a5780638bb633ca1461019b575b600080fd5b3480156100b857600080fd5b506100c1610315565b6040518082815260200191505060405180910390f35b3480156100e357600080fd5b506100ec61031f565b005b3480156100fa57600080fd5b50610103610449565b6040518082815260200191505060405180910390f35b34801561012557600080fd5b5061012e61044f565b604051808273ffffffffffffffffffffffffffffffffffffffff16815260200191505060405180910390f35b34801561016657600080fd5b5061016f610475565b604051808273ffffffffffffffffffffffffffffffffffffffff16815260200191505060405180910390f35b3480156101a757600080fd5b506101b061049b565b604051808273ffffffffffffffffffffffffffffffffffffffff16815260200191505060405180910390f35b3480156101e857600080fd5b506101f16104c1565b604051808273ffffffffffffffffffffffffffffffffffffffff16815260200191505060405180910390f35b34801561022957600080fd5b506102326104e5565b604051808273ffffffffffffffffffffffffffffffffffffffff16815260200191505060405180910390f35b34801561026a57600080fd5b5061027361050b565b604051808273ffffffffffffffffffffffffffffffffffffffff16815260200191505060405180910390f35b3480156102ab57600080fd5b506102b4610531565b6040518082815260200191505060405180910390f35b6102d2610539565b005b3480156102e057600080fd5b506102e9610711565b604051808273ffffffffffffffffffffffffffffffffffffffff16815260200191505060405180910390f35b6000600854905090565b60008054906101000a900473ffffffffffffffffffffffffffffffffffffffff1673ffffffffffffffffffffffffffffffffffffffff163373ffffffffffffffffffffffffffffffffffffffff16146103e0576040517f08c379a00000000000000000000000000000000000000000000000000000000081526004018080602001828103825260178152602001807f4f6e6c79206f776e65722063616e20776974686472617700000000000000000081525060200191505060405180910390fd5b60008054906101000a900473ffffffffffffffffffffffffffffffffffffffff1673ffffffffffffffffffffffffffffffffffffffff166108fc479081150290604051600060405180830381858888f19350505050158015610446573d6000803e3d6000fd5b50565b60075481565b600560009054906101000a900473ffffffffffffffffffffffffffffffffffffffff1681565b600160009054906101000a900473ffffffffffffffffffffffffffffffffffffffff1681565b600360009054906101000a900473ffffffffffffffffffffffffffffffffffffffff1681565b60008054906101000a900473ffffffffffffffffffffffffffffffffffffffff1681565b600260009054906101000a900473ffffffffffffffffffffffffffffffffffffffff1681565b600660009054906101000a900473ffffffffffffffffffffffffffffffffffffffff1681565b600047905090565b60075434146105b0576040517f08c379a00000000000000000000000000000000000000000000000000000000081526004018080602001828103825260178152602001807f496e76616c696420646f6e6174696f6e20616d6f756e7400000000000000000081525060200191505060405180910390fd5b6000600160009054906101000a900473ffffffffffffffffffffffffffffffffffffffff1673ffffffffffffffffffffffffffffffffffffffff163460405180600001905060006040518083038185875af1925050503d8060008114610632576040519150601f19603f3d011682016040523d82523d6000602084013e610637565b606091505b50509050806106ae576040517f08c379a00000000000000000000000000000000000000000000000000000000081526004018080602001828103825260178152602001807f4661696c656420746f2073656e6420646f6e6174696f6e00000000000000000081525060200191505060405180910390fd5b6007546008600082825401925050819055503373ffffffffffffffffffffffffffffffffffffffff167f264f630d9efa0d07053a31163641d9fcc0adafc9d9e76f1c37c2ce3a558d2c52346040518082815260200191505060405180910390a250565b600460009054906101000a900473ffffffffffffffffffffffffffffffffffffffff168156fea2646970667358221220cad2e6e04d0f7d926e50fa27e99a63dd0a57b249153a20b23be9094ab3d57ac864736f6c63430007040033",
  "immutableReferences": {},
  "source": "// SPDX-License-Identifier: MIT\r\npragma solidity 0.7.4;\r\n\r\ncontract Donation {\r\n    address public owner; // Akıllı kontrat sahibinin adresi\r\n    address public sepoliaWallet = 0xE595FfB62521c54cD7d80dB98352a5aAfBA79aEE; // Sepolia cüzdanı\r\n    address public sepoliaWallet1 = 0xCf5739410C28376BB698B911b2E654c00516cBbf;\r\n    address public sepoliaWallet2 = 0x39F3713e6FDe02C4B8aD49772c2eB6e3cD3001A9;\r\n    address public sepoliaWallet3 = 0x416cacAa5F9D98Dd0321ba5Bd21a89d648Ae0c2b;\r\n    address public sepoliaWallet4 = 0x1AdaAaAb2bc1eC22e6b6d87d19EA998903A9E9a3;\r\n    address public sepoliaWallet5 = 0x850C448d7DB1BA62B62b711b9fB76D9116e07279;\r\n    uint256 public donationAmount = 0.000001 * 10**18; // 0.01 SepoliaEther (Sepolia'nın alt birimi olarak)\r\n    uint256 totalDonationsAmount=0;\r\n\r\n    event DonationReceived(address indexed donor, uint256 amount);\r\n\r\n    // Kurucu fonksiyon, akıllı kontrat sahibini belirler\r\n    constructor() {\r\n        owner = msg.sender;\r\n    }\r\n\r\n    // Bağış yapma fonksiyonu\r\n    function donate() external payable {\r\n        require(msg.value == donationAmount, \"Invalid donation amount\");\r\n        \r\n        (bool sent, ) = sepoliaWallet.call{value: msg.value}(\"\");\r\n        require(sent, \"Failed to send donation\");\r\n        totalDonationsAmount += donationAmount;\r\n        emit DonationReceived(msg.sender, msg.value);\r\n    }\r\n\r\n    // Akıllı kontrattaki toplam bağış miktarını gösteren fonksiyon\r\n    function totalDonations() external view returns (uint256) {\r\n        return address(this).balance;\r\n    }\r\n\r\n    // Akıllı kontrattan ETH çekme fonksiyonu (sadece sahip tarafından kullanılabilir)\r\n    function withdraw() external {\r\n        require(msg.sender == owner, \"Only owner can withdraw\");\r\n        \r\n        payable(owner).transfer(address(this).balance);\r\n    }\r\n\r\n    function getTotalDonationsAmount() public view returns (uint256) {\r\n        return totalDonationsAmount;\r\n    }\r\n}\r\n\r\n",
  "sourcePath": "C:\\Users\\TUFF\\Desktop\\Block chain\\Blockchain_based_charity_donation_platform\\Charity_platform\\contracts\\contract.sol",
  "compiler": {
    "name": "solc",
    "version": "0.7.4+commit.3f05b770.Emscripten.clang"
  },
  "schemaVersion": "3.4.16",
  "updatedAt": "2025-04-07T14:37:08.961Z",
  "networkType": "ethereum",
  "devdoc": {
    "kind": "dev",
    "methods": {},
    "version": 1
  },
  "userdoc": {
    "kind": "user",
    "methods": {},
    "version": 1
  }
}